{
  "_format": "hh-sol-artifact-1",
  "contractName": "ArtistStaking",
  "sourceName": "contracts/ArtistStaking.sol",
  "abi": [
    {
      "inputs": [
        {
          "internalType": "address",
          "name": "_stablecoin",
          "type": "address"
        },
        {
          "internalType": "address",
          "name": "_cookiesToken",
          "type": "address"
        },
        {
          "internalType": "address",
          "name": "_platformWallet",
          "type": "address"
        }
      ],
      "stateMutability": "nonpayable",
      "type": "constructor"
    },
    {
      "inputs": [
        {
          "internalType": "address",
          "name": "owner",
          "type": "address"
        }
      ],
      "name": "OwnableInvalidOwner",
      "type": "error"
    },
    {
      "inputs": [
        {
          "internalType": "address",
          "name": "account",
          "type": "address"
        }
      ],
      "name": "OwnableUnauthorizedAccount",
      "type": "error"
    },
    {
      "anonymous": false,
      "inputs": [
        {
          "indexed": true,
          "internalType": "address",
          "name": "staker",
          "type": "address"
        },
        {
          "indexed": false,
          "internalType": "uint256",
          "name": "amount",
          "type": "uint256"
        }
      ],
      "name": "CookiesRewarded",
      "type": "event"
    },
    {
      "anonymous": false,
      "inputs": [
        {
          "indexed": true,
          "internalType": "address",
          "name": "previousOwner",
          "type": "address"
        },
        {
          "indexed": true,
          "internalType": "address",
          "name": "newOwner",
          "type": "address"
        }
      ],
      "name": "OwnershipTransferred",
      "type": "event"
    },
    {
      "anonymous": false,
      "inputs": [
        {
          "indexed": true,
          "internalType": "address",
          "name": "staker",
          "type": "address"
        },
        {
          "indexed": false,
          "internalType": "uint256",
          "name": "amount",
          "type": "uint256"
        }
      ],
      "name": "Staked",
      "type": "event"
    },
    {
      "anonymous": false,
      "inputs": [
        {
          "indexed": true,
          "internalType": "address",
          "name": "staker",
          "type": "address"
        },
        {
          "indexed": false,
          "internalType": "uint256",
          "name": "amount",
          "type": "uint256"
        }
      ],
      "name": "Unstaked",
      "type": "event"
    },
    {
      "anonymous": false,
      "inputs": [
        {
          "indexed": true,
          "internalType": "address",
          "name": "staker",
          "type": "address"
        },
        {
          "indexed": false,
          "internalType": "uint256",
          "name": "amount",
          "type": "uint256"
        }
      ],
      "name": "YieldClaimed",
      "type": "event"
    },
    {
      "inputs": [],
      "name": "COOKIES_REWARD_RATE",
      "outputs": [
        {
          "internalType": "uint256",
          "name": "",
          "type": "uint256"
        }
      ],
      "stateMutability": "view",
      "type": "function"
    },
    {
      "inputs": [],
      "name": "PLATFORM_FEE",
      "outputs": [
        {
          "internalType": "uint256",
          "name": "",
          "type": "uint256"
        }
      ],
      "stateMutability": "view",
      "type": "function"
    },
    {
      "inputs": [],
      "name": "SECONDS_PER_DAY",
      "outputs": [
        {
          "internalType": "uint256",
          "name": "",
          "type": "uint256"
        }
      ],
      "stateMutability": "view",
      "type": "function"
    },
    {
      "inputs": [],
      "name": "claimRewards",
      "outputs": [],
      "stateMutability": "nonpayable",
      "type": "function"
    },
    {
      "inputs": [],
      "name": "cookiesToken",
      "outputs": [
        {
          "internalType": "contract CookiesToken",
          "name": "",
          "type": "address"
        }
      ],
      "stateMutability": "view",
      "type": "function"
    },
    {
      "inputs": [
        {
          "internalType": "address",
          "name": "",
          "type": "address"
        }
      ],
      "name": "lastRewardClaim",
      "outputs": [
        {
          "internalType": "uint256",
          "name": "",
          "type": "uint256"
        }
      ],
      "stateMutability": "view",
      "type": "function"
    },
    {
      "inputs": [],
      "name": "owner",
      "outputs": [
        {
          "internalType": "address",
          "name": "",
          "type": "address"
        }
      ],
      "stateMutability": "view",
      "type": "function"
    },
    {
      "inputs": [],
      "name": "platformWallet",
      "outputs": [
        {
          "internalType": "address",
          "name": "",
          "type": "address"
        }
      ],
      "stateMutability": "view",
      "type": "function"
    },
    {
      "inputs": [],
      "name": "renounceOwnership",
      "outputs": [],
      "stateMutability": "nonpayable",
      "type": "function"
    },
    {
      "inputs": [],
      "name": "stablecoin",
      "outputs": [
        {
          "internalType": "contract IERC20",
          "name": "",
          "type": "address"
        }
      ],
      "stateMutability": "view",
      "type": "function"
    },
    {
      "inputs": [
        {
          "internalType": "uint256",
          "name": "amount",
          "type": "uint256"
        }
      ],
      "name": "stake",
      "outputs": [],
      "stateMutability": "nonpayable",
      "type": "function"
    },
    {
      "inputs": [
        {
          "internalType": "address",
          "name": "",
          "type": "address"
        }
      ],
      "name": "stakes",
      "outputs": [
        {
          "internalType": "uint256",
          "name": "amount",
          "type": "uint256"
        },
        {
          "internalType": "uint256",
          "name": "timestamp",
          "type": "uint256"
        },
        {
          "internalType": "bool",
          "name": "isActive",
          "type": "bool"
        }
      ],
      "stateMutability": "view",
      "type": "function"
    },
    {
      "inputs": [
        {
          "internalType": "address",
          "name": "newOwner",
          "type": "address"
        }
      ],
      "name": "transferOwnership",
      "outputs": [],
      "stateMutability": "nonpayable",
      "type": "function"
    },
    {
      "inputs": [],
      "name": "unstake",
      "outputs": [],
      "stateMutability": "nonpayable",
      "type": "function"
    },
    {
      "inputs": [
        {
          "internalType": "address",
          "name": "_newWallet",
          "type": "address"
        }
      ],
      "name": "updatePlatformWallet",
      "outputs": [],
      "stateMutability": "nonpayable",
      "type": "function"
    }
  ],
  "bytecode": "0x608060405234801561001057600080fd5b50604051610cb1380380610cb183398101604081905261002f9161010d565b338061005557604051631e4fbdf760e01b81526000600482015260240160405180910390fd5b61005e816100a1565b50600280546001600160a01b039485166001600160a01b031991821617909155600380549385169382169390931790925560018054919093169116179055610150565b600080546001600160a01b038381166001600160a01b0319831681178455604051919092169283917f8be0079c531659141344cd1fd0a4f28419497f9722a3daafe3b4186f6b6457e09190a35050565b80516001600160a01b038116811461010857600080fd5b919050565b60008060006060848603121561012257600080fd5b61012b846100f1565b9250610139602085016100f1565b9150610147604085016100f1565b90509250925092565b610b528061015f6000396000f3fe608060405234801561001057600080fd5b50600436106100f55760003560e01c80638da5cb5b11610097578063d8ad523111610066578063d8ad5231146101ee578063e9cbd8221461020e578063f2fde38b14610221578063fa2af9da1461023457600080fd5b80638da5cb5b14610190578063a694fc3a146101b5578063ada4ef30146101c8578063af61934f146101db57600080fd5b8063372500ab116100d3578063372500ab1461016e57806344d5eb1614610176578063715018a61461017e57806374f0314f1461018657600080fd5b806316934fc4146100fa5780632def66201461014e57806334fbc9a114610158575b600080fd5b61012c610108366004610a49565b60046020526000908152604090208054600182015460029092015490919060ff1683565b6040805193845260208401929092521515908201526060015b60405180910390f35b610156610247565b005b610160600a81565b604051908152602001610145565b6101566103a7565b610160606481565b610156610406565b6101606201518081565b6000546001600160a01b03165b6040516001600160a01b039091168152602001610145565b6101566101c3366004610a79565b610418565b6101566101d6366004610a49565b6105d3565b60035461019d906001600160a01b031681565b6101606101fc366004610a49565b60056020526000908152604090205481565b60025461019d906001600160a01b031681565b61015661022f366004610a49565b61064c565b60015461019d906001600160a01b031681565b336000908152600460205260409020600281015460ff166102a15760405162461bcd60e51b815260206004820152600f60248201526e4e6f20616374697665207374616b6560881b60448201526064015b60405180910390fd5b6102aa3361068a565b80546002808301805460ff19169055600083555460405163a9059cbb60e01b8152336004820152602481018390526001600160a01b039091169063a9059cbb906044016020604051808303816000875af115801561030c573d6000803e3d6000fd5b505050506040513d601f19601f820116820180604052508101906103309190610a92565b61036e5760405162461bcd60e51b815260206004820152600f60248201526e151c985b9cd9995c8819985a5b1959608a1b6044820152606401610298565b60405181815233907f0f5bb82176feb1b5e747e28471aa92156a04d9f3ab9f45f28e2d704232b93f759060200160405180910390a25050565b3360009081526004602052604090206002015460ff166103fb5760405162461bcd60e51b815260206004820152600f60248201526e4e6f20616374697665207374616b6560881b6044820152606401610298565b6104043361068a565b565b61040e6109cc565b61040460006109f9565b600081116104685760405162461bcd60e51b815260206004820152601d60248201527f416d6f756e74206d7573742062652067726561746572207468616e20300000006044820152606401610298565b6002546040516323b872dd60e01b8152336004820152306024820152604481018390526001600160a01b03909116906323b872dd906064016020604051808303816000875af11580156104bf573d6000803e3d6000fd5b505050506040513d601f19601f820116820180604052508101906104e39190610a92565b6105215760405162461bcd60e51b815260206004820152600f60248201526e151c985b9cd9995c8819985a5b1959608a1b6044820152606401610298565b3360009081526004602052604090206002015460ff1615610545576105453361068a565b6040805160608101825282815242602080830182815260018486018181523360008181526004865288812097518855935192870192909255516002909501805460ff1916951515959095179094556005825284902091909155915183815290917f9e71bc8eea02a63969f509818f2dafb9254532904319f9dbda79b67bd34a5f3d910160405180910390a250565b6105db6109cc565b6001600160a01b03811661062a5760405162461bcd60e51b8152602060048201526016602482015275496e76616c69642077616c6c6574206164647265737360501b6044820152606401610298565b600180546001600160a01b0319166001600160a01b0392909216919091179055565b6106546109cc565b6001600160a01b03811661067e57604051631e4fbdf760e01b815260006004820152602401610298565b610687816109f9565b50565b6001600160a01b0381166000908152600560205260408120546106ad9042610aca565b9050806000036106bb575050565b6001600160a01b0382166000908152600460205260408120805490919062015180906106e8908590610ae3565b6106f29190610afa565b905060006064610703600a84610ae3565b61070d9190610afa565b9050600061071b8284610aca565b60025460015460405163a9059cbb60e01b81526001600160a01b03918216600482015260248101869052929350169063a9059cbb906044016020604051808303816000875af1158015610772573d6000803e3d6000fd5b505050506040513d601f19601f820116820180604052508101906107969190610a92565b6107e25760405162461bcd60e51b815260206004820152601860248201527f506c6174666f726d207472616e73666572206661696c656400000000000000006044820152606401610298565b60025460405163a9059cbb60e01b81526001600160a01b038881166004830152602482018490529091169063a9059cbb906044016020604051808303816000875af1158015610835573d6000803e3d6000fd5b505050506040513d601f19601f820116820180604052508101906108599190610a92565b61089e5760405162461bcd60e51b8152602060048201526016602482015275105c9d1a5cdd081d1c985b9cd9995c8819985a5b195960521b6044820152606401610298565b60006201518086606487600001546108b69190610ae3565b6108c09190610ae3565b6108ca9190610afa565b6003546040516340c10f1960e01b81526001600160a01b038a81166004830152602482018490529293509116906340c10f1990604401600060405180830381600087803b15801561091a57600080fd5b505af115801561092e573d6000803e3d6000fd5b505050506001600160a01b03871660008181526005602090815260409182902042905590518681527fc04825ba3f383b602255d2a13065a68e325c65c9e0ed5d031ea2b06f641873af910160405180910390a2866001600160a01b03167e9e5fbb708b6a90bda64d18c8d9fef665b64c84bebc7a4d6e9b620b2e707c0d826040516109bb91815260200190565b60405180910390a250505050505050565b6000546001600160a01b031633146104045760405163118cdaa760e01b8152336004820152602401610298565b600080546001600160a01b038381166001600160a01b0319831681178455604051919092169283917f8be0079c531659141344cd1fd0a4f28419497f9722a3daafe3b4186f6b6457e09190a35050565b600060208284031215610a5b57600080fd5b81356001600160a01b0381168114610a7257600080fd5b9392505050565b600060208284031215610a8b57600080fd5b5035919050565b600060208284031215610aa457600080fd5b81518015158114610a7257600080fd5b634e487b7160e01b600052601160045260246000fd5b81810381811115610add57610add610ab4565b92915050565b8082028115828204841417610add57610add610ab4565b600082610b1757634e487b7160e01b600052601260045260246000fd5b50049056fea264697066735822122035f8190c80ce2923464f6929483e5e81d4f6e9d23f70f7f262f5ab5b60bac93364736f6c63430008140033",
  "linkReferences": {},
  "deployedLinkReferences": {}
}