{
  "_format": "hh-sol-artifact-1",
  "contractName": "NFTFactory",
  "sourceName": "contracts/NFTFactory.sol",
  "abi": [
    {
      "anonymous": false,
      "inputs": [
        {
          "indexed": true,
          "internalType": "address",
          "name": "collectionAddress",
          "type": "address"
        },
        {
          "indexed": true,
          "internalType": "address",
          "name": "owner",
          "type": "address"
        },
        {
          "indexed": false,
          "internalType": "string",
          "name": "name",
          "type": "string"
        },
        {
          "indexed": false,
          "internalType": "string",
          "name": "symbol",
          "type": "string"
        }
      ],
      "name": "CollectionCreated",
      "type": "event"
    },
    {
      "inputs": [
        {
          "internalType": "uint256",
          "name": "",
          "type": "uint256"
        }
      ],
      "name": "allCollections",
      "outputs": [
        {
          "internalType": "address",
          "name": "",
          "type": "address"
        }
      ],
      "stateMutability": "view",
      "type": "function"
    },
    {
      "inputs": [
        {
          "internalType": "string",
          "name": "name",
          "type": "string"
        },
        {
          "internalType": "string",
          "name": "symbol",
          "type": "string"
        }
      ],
      "name": "createNFTCollection",
      "outputs": [],
      "stateMutability": "nonpayable",
      "type": "function"
    },
    {
      "inputs": [],
      "name": "getAllCollections",
      "outputs": [
        {
          "internalType": "address[]",
          "name": "",
          "type": "address[]"
        }
      ],
      "stateMutability": "view",
      "type": "function"
    },
    {
      "inputs": [
        {
          "internalType": "address",
          "name": "owner",
          "type": "address"
        }
      ],
      "name": "getCollectionsByOwner",
      "outputs": [
        {
          "internalType": "address[]",
          "name": "",
          "type": "address[]"
        }
      ],
      "stateMutability": "view",
      "type": "function"
    },
    {
      "inputs": [
        {
          "internalType": "address",
          "name": "",
          "type": "address"
        },
        {
          "internalType": "uint256",
          "name": "",
          "type": "uint256"
        }
      ],
      "name": "ownerCollections",
      "outputs": [
        {
          "internalType": "address",
          "name": "",
          "type": "address"
        }
      ],
      "stateMutability": "view",
      "type": "function"
    }
  ],
  "bytecode": "0x608060405234801561001057600080fd5b50611dfd806100206000396000f3fe60806040523480156200001157600080fd5b50600436106200005e5760003560e01c8063167ef495146200006357806339b5f830146200009757806366223a1814620000ae5780636804a95814620000c7578063e178d60c14620000e0575b600080fd5b6200007a620000743660046200033e565b620000f7565b6040516001600160a01b0390911681526020015b60405180910390f35b6200007a620000a836600462000375565b62000122565b620000c5620000bf3660046200044d565b6200015b565b005b620000d162000254565b6040516200008e9190620004b8565b620000d1620000f136600462000507565b620002b8565b600081815481106200010857600080fd5b6000918252602090912001546001600160a01b0316905081565b600160205281600052604060002081815481106200013f57600080fd5b6000918252602090912001546001600160a01b03169150829050565b60008282336040516200016e9062000330565b6200017c9392919062000574565b604051809103906000f08015801562000199573d6000803e3d6000fd5b5060008054600181810183557f290decd9548b62a8d60345a988386fc84ba6bc95484008f6362f93160ef3e56390910180546001600160a01b0385166001600160a01b0319918216811790925533808552602084815260408087208054968701815587529520909301805490911682179055915192935083929091907f5fead977881b23a0dbf2f905699203f29cefea57a576d2d4f412523191258e8490620002469088908890620005b6565b60405180910390a350505050565b60606000805480602002602001604051908101604052809291908181526020018280548015620002ae57602002820191906000526020600020905b81546001600160a01b031681526001909101906020018083116200028f575b5050505050905090565b6001600160a01b0381166000908152600160209081526040918290208054835181840281018401909452808452606093928301828280156200032457602002820191906000526020600020905b81546001600160a01b0316815260019091019060200180831162000305575b50505050509050919050565b6117df80620005e983390190565b6000602082840312156200035157600080fd5b5035919050565b80356001600160a01b03811681146200037057600080fd5b919050565b600080604083850312156200038957600080fd5b620003948362000358565b946020939093013593505050565b634e487b7160e01b600052604160045260246000fd5b600082601f830112620003ca57600080fd5b813567ffffffffffffffff80821115620003e857620003e8620003a2565b604051601f8301601f19908116603f01168101908282118183101715620004135762000413620003a2565b816040528381528660208588010111156200042d57600080fd5b836020870160208301376000602085830101528094505050505092915050565b600080604083850312156200046157600080fd5b823567ffffffffffffffff808211156200047a57600080fd5b6200048886838701620003b8565b935060208501359150808211156200049f57600080fd5b50620004ae85828601620003b8565b9150509250929050565b6020808252825182820181905260009190848201906040850190845b81811015620004fb5783516001600160a01b031683529284019291840191600101620004d4565b50909695505050505050565b6000602082840312156200051a57600080fd5b620005258262000358565b9392505050565b6000815180845260005b81811015620005545760208185018101518683018201520162000536565b506000602082860101526020601f19601f83011685010191505092915050565b6060815260006200058960608301866200052c565b82810360208401526200059d81866200052c565b91505060018060a01b0383166040830152949350505050565b604081526000620005cb60408301856200052c565b8281036020840152620005df81856200052c565b9594505050505056fe60806040523480156200001157600080fd5b50604051620017df380380620017df8339810160408190526200003491620001b2565b8083836000620000458382620002ce565b506001620000548282620002ce565b5050506001600160a01b0381166200008657604051631e4fbdf760e01b81526000600482015260240160405180910390fd5b62000091816200009b565b505050506200039a565b600780546001600160a01b038381166001600160a01b0319831681179093556040519116919082907f8be0079c531659141344cd1fd0a4f28419497f9722a3daafe3b4186f6b6457e090600090a35050565b634e487b7160e01b600052604160045260246000fd5b600082601f8301126200011557600080fd5b81516001600160401b0380821115620001325762000132620000ed565b604051601f8301601f19908116603f011681019082821181831017156200015d576200015d620000ed565b816040528381526020925086838588010111156200017a57600080fd5b600091505b838210156200019e57858201830151818301840152908201906200017f565b600093810190920192909252949350505050565b600080600060608486031215620001c857600080fd5b83516001600160401b0380821115620001e057600080fd5b620001ee8783880162000103565b945060208601519150808211156200020557600080fd5b50620002148682870162000103565b604086015190935090506001600160a01b03811681146200023457600080fd5b809150509250925092565b600181811c908216806200025457607f821691505b6020821081036200027557634e487b7160e01b600052602260045260246000fd5b50919050565b601f821115620002c957600081815260208120601f850160051c81016020861015620002a45750805b601f850160051c820191505b81811015620002c557828155600101620002b0565b5050505b505050565b81516001600160401b03811115620002ea57620002ea620000ed565b6200030281620002fb84546200023f565b846200027b565b602080601f8311600181146200033a5760008415620003215750858301515b600019600386901b1c1916600185901b178555620002c5565b600085815260208120601f198616915b828110156200036b578886015182559484019460019091019084016200034a565b50858210156200038a5787850151600019600388901b60f8161c191681555b5050505050600190811b01905550565b61143580620003aa6000396000f3fe608060405234801561001057600080fd5b506004361061010b5760003560e01c8063715018a6116100a2578063b88d4fde11610071578063b88d4fde1461021b578063c87b56dd1461022e578063d204c45e14610241578063e985e9c514610254578063f2fde38b1461026757600080fd5b8063715018a6146101e75780638da5cb5b146101ef57806395d89b4114610200578063a22cb4651461020857600080fd5b806323b872dd116100de57806323b872dd1461018d57806342842e0e146101a05780636352211e146101b357806370a08231146101c657600080fd5b806301ffc9a71461011057806306fdde0314610138578063081812fc1461014d578063095ea7b314610178575b600080fd5b61012361011e366004610f00565b61027a565b60405190151581526020015b60405180910390f35b61014061028b565b60405161012f9190610f6d565b61016061015b366004610f80565b61031d565b6040516001600160a01b03909116815260200161012f565b61018b610186366004610fb5565b610346565b005b61018b61019b366004610fdf565b610355565b61018b6101ae366004610fdf565b6103e5565b6101606101c1366004610f80565b610405565b6101d96101d436600461101b565b610410565b60405190815260200161012f565b61018b610458565b6007546001600160a01b0316610160565b61014061046c565b61018b610216366004611036565b61047b565b61018b6102293660046110fe565b610486565b61014061023c366004610f80565b61049e565b61018b61024f36600461117a565b6104a9565b6101236102623660046111dc565b6104dc565b61018b61027536600461101b565b61050a565b600061028582610548565b92915050565b60606000805461029a9061120f565b80601f01602080910402602001604051908101604052809291908181526020018280546102c69061120f565b80156103135780601f106102e857610100808354040283529160200191610313565b820191906000526020600020905b8154815290600101906020018083116102f657829003601f168201915b5050505050905090565b60006103288261056d565b506000828152600460205260409020546001600160a01b0316610285565b6103518282336105a6565b5050565b6001600160a01b03821661038457604051633250574960e11b8152600060048201526024015b60405180910390fd5b60006103918383336105b3565b9050836001600160a01b0316816001600160a01b0316146103df576040516364283d7b60e01b81526001600160a01b038086166004830152602482018490528216604482015260640161037b565b50505050565b61040083838360405180602001604052806000815250610486565b505050565b60006102858261056d565b60006001600160a01b03821661043c576040516322718ad960e21b81526000600482015260240161037b565b506001600160a01b031660009081526003602052604090205490565b6104606106ac565b61046a60006106d9565b565b60606001805461029a9061120f565b61035133838361072b565b610491848484610355565b6103df33858585856107ca565b6060610285826108f5565b6104b16106ac565b60088054600091826104c283611249565b9190505590506104d28382610a06565b6104008183610a20565b6001600160a01b03918216600090815260056020908152604080832093909416825291909152205460ff1690565b6105126106ac565b6001600160a01b03811661053c57604051631e4fbdf760e01b81526000600482015260240161037b565b610545816106d9565b50565b60006001600160e01b03198216632483248360e11b1480610285575061028582610a70565b6000818152600260205260408120546001600160a01b03168061028557604051637e27328960e01b81526004810184905260240161037b565b6104008383836001610ac0565b6000828152600260205260408120546001600160a01b03908116908316156105e0576105e0818486610bc6565b6001600160a01b0381161561061e576105fd600085600080610ac0565b6001600160a01b038116600090815260036020526040902080546000190190555b6001600160a01b0385161561064d576001600160a01b0385166000908152600360205260409020805460010190555b60008481526002602052604080822080546001600160a01b0319166001600160a01b0389811691821790925591518793918516917fddf252ad1be2c89b69c2b068fc378daa952ba7f163c4a11628f55a4df523b3ef91a4949350505050565b6007546001600160a01b0316331461046a5760405163118cdaa760e01b815233600482015260240161037b565b600780546001600160a01b038381166001600160a01b0319831681179093556040519116919082907f8be0079c531659141344cd1fd0a4f28419497f9722a3daafe3b4186f6b6457e090600090a35050565b6001600160a01b03821661075d57604051630b61174360e31b81526001600160a01b038316600482015260240161037b565b6001600160a01b03838116600081815260056020908152604080832094871680845294825291829020805460ff191686151590811790915591519182527f17307eab39ab6107e8899845ad3d59bd9653f200f220920489ca2b5937696c31910160405180910390a3505050565b6001600160a01b0383163b156108ee57604051630a85bd0160e11b81526001600160a01b0384169063150b7a029061080c908890889087908790600401611270565b6020604051808303816000875af1925050508015610847575060408051601f3d908101601f19168201909252610844918101906112ad565b60015b6108b0573d808015610875576040519150601f19603f3d011682016040523d82523d6000602084013e61087a565b606091505b5080516000036108a857604051633250574960e11b81526001600160a01b038516600482015260240161037b565b805181602001fd5b6001600160e01b03198116630a85bd0160e11b146108ec57604051633250574960e11b81526001600160a01b038516600482015260240161037b565b505b5050505050565b60606109008261056d565b506000828152600660205260408120805461091a9061120f565b80601f01602080910402602001604051908101604052809291908181526020018280546109469061120f565b80156109935780601f1061096857610100808354040283529160200191610993565b820191906000526020600020905b81548152906001019060200180831161097657829003601f168201915b5050505050905060006109b160408051602081019091526000815290565b905080516000036109c3575092915050565b8151156109f55780826040516020016109dd9291906112ca565b60405160208183030381529060405292505050919050565b6109fe84610c2a565b949350505050565b610351828260405180602001604052806000815250610c9f565b6000828152600660205260409020610a38828261133f565b506040518281527ff8e1a15aba9398e019f0b49df1a4fde98ee17ae345cb5f6b5e2c27f5033e8ce79060200160405180910390a15050565b60006001600160e01b031982166380ac58cd60e01b1480610aa157506001600160e01b03198216635b5e139f60e01b145b8061028557506301ffc9a760e01b6001600160e01b0319831614610285565b8080610ad457506001600160a01b03821615155b15610b96576000610ae48461056d565b90506001600160a01b03831615801590610b105750826001600160a01b0316816001600160a01b031614155b8015610b235750610b2181846104dc565b155b15610b4c5760405163a9fbf51f60e01b81526001600160a01b038416600482015260240161037b565b8115610b945783856001600160a01b0316826001600160a01b03167f8c5be1e5ebec7d5bd14f71427d1e84f3dd0314c0f7b2291e5b200ac8c7c3b92560405160405180910390a45b505b5050600090815260046020526040902080546001600160a01b0319166001600160a01b0392909216919091179055565b610bd1838383610cb7565b610400576001600160a01b038316610bff57604051637e27328960e01b81526004810182905260240161037b565b60405163177e802f60e01b81526001600160a01b03831660048201526024810182905260440161037b565b6060610c358261056d565b506000610c4d60408051602081019091526000815290565b90506000815111610c6d5760405180602001604052806000815250610c98565b80610c7784610d1a565b604051602001610c889291906112ca565b6040516020818303038152906040525b9392505050565b610ca98383610dad565b6104003360008585856107ca565b60006001600160a01b038316158015906109fe5750826001600160a01b0316846001600160a01b03161480610cf15750610cf184846104dc565b806109fe5750506000908152600460205260409020546001600160a01b03908116911614919050565b60606000610d2783610e12565b600101905060008167ffffffffffffffff811115610d4757610d47611072565b6040519080825280601f01601f191660200182016040528015610d71576020820181803683370190505b5090508181016020015b600019016f181899199a1a9b1b9c1cb0b131b232b360811b600a86061a8153600a8504945084610d7b57509392505050565b6001600160a01b038216610dd757604051633250574960e11b81526000600482015260240161037b565b6000610de5838360006105b3565b90506001600160a01b03811615610400576040516339e3563760e11b81526000600482015260240161037b565b60008072184f03e93ff9f4daa797ed6e38ed64bf6a1f0160401b8310610e515772184f03e93ff9f4daa797ed6e38ed64bf6a1f0160401b830492506040015b6d04ee2d6d415b85acef81000000008310610e7d576d04ee2d6d415b85acef8100000000830492506020015b662386f26fc100008310610e9b57662386f26fc10000830492506010015b6305f5e1008310610eb3576305f5e100830492506008015b6127108310610ec757612710830492506004015b60648310610ed9576064830492506002015b600a83106102855760010192915050565b6001600160e01b03198116811461054557600080fd5b600060208284031215610f1257600080fd5b8135610c9881610eea565b60005b83811015610f38578181015183820152602001610f20565b50506000910152565b60008151808452610f59816020860160208601610f1d565b601f01601f19169290920160200192915050565b602081526000610c986020830184610f41565b600060208284031215610f9257600080fd5b5035919050565b80356001600160a01b0381168114610fb057600080fd5b919050565b60008060408385031215610fc857600080fd5b610fd183610f99565b946020939093013593505050565b600080600060608486031215610ff457600080fd5b610ffd84610f99565b925061100b60208501610f99565b9150604084013590509250925092565b60006020828403121561102d57600080fd5b610c9882610f99565b6000806040838503121561104957600080fd5b61105283610f99565b91506020830135801515811461106757600080fd5b809150509250929050565b634e487b7160e01b600052604160045260246000fd5b600067ffffffffffffffff808411156110a3576110a3611072565b604051601f8501601f19908116603f011681019082821181831017156110cb576110cb611072565b816040528093508581528686860111156110e457600080fd5b858560208301376000602087830101525050509392505050565b6000806000806080858703121561111457600080fd5b61111d85610f99565b935061112b60208601610f99565b925060408501359150606085013567ffffffffffffffff81111561114e57600080fd5b8501601f8101871361115f57600080fd5b61116e87823560208401611088565b91505092959194509250565b6000806040838503121561118d57600080fd5b61119683610f99565b9150602083013567ffffffffffffffff8111156111b257600080fd5b8301601f810185136111c357600080fd5b6111d285823560208401611088565b9150509250929050565b600080604083850312156111ef57600080fd5b6111f883610f99565b915061120660208401610f99565b90509250929050565b600181811c9082168061122357607f821691505b60208210810361124357634e487b7160e01b600052602260045260246000fd5b50919050565b60006001820161126957634e487b7160e01b600052601160045260246000fd5b5060010190565b6001600160a01b03858116825284166020820152604081018390526080606082018190526000906112a390830184610f41565b9695505050505050565b6000602082840312156112bf57600080fd5b8151610c9881610eea565b600083516112dc818460208801610f1d565b8351908301906112f0818360208801610f1d565b01949350505050565b601f82111561040057600081815260208120601f850160051c810160208610156113205750805b601f850160051c820191505b818110156108ec5782815560010161132c565b815167ffffffffffffffff81111561135957611359611072565b61136d81611367845461120f565b846112f9565b602080601f8311600181146113a2576000841561138a5750858301515b600019600386901b1c1916600185901b1785556108ec565b600085815260208120601f198616915b828110156113d1578886015182559484019460019091019084016113b2565b50858210156113ef5787850151600019600388901b60f8161c191681555b5050505050600190811b0190555056fea2646970667358221220dc0c524b14a0d82f953c317a670f27558dfb26a710b1beec12705dfb8cc2e95a64736f6c63430008140033a2646970667358221220a76b508cd2a4c6cc53b1504bb3126a7dd940fcbc2ea7532d6ed21f58f9e3e6a364736f6c63430008140033",
  "linkReferences": {},
  "deployedLinkReferences": {}
}