{
  "_format": "hh-sol-artifact-1",
  "contractName": "ArtistDonation",
  "sourceName": "contracts/ArtistDonation.sol",
  "abi": [
    {
      "inputs": [
        {
          "internalType": "address",
          "name": "_platformWallet",
          "type": "address"
        }
      ],
      "stateMutability": "nonpayable",
      "type": "constructor"
    },
    {
      "inputs": [
        {
          "internalType": "address",
          "name": "owner",
          "type": "address"
        }
      ],
      "name": "OwnableInvalidOwner",
      "type": "error"
    },
    {
      "inputs": [
        {
          "internalType": "address",
          "name": "account",
          "type": "address"
        }
      ],
      "name": "OwnableUnauthorizedAccount",
      "type": "error"
    },
    {
      "anonymous": false,
      "inputs": [
        {
          "indexed": true,
          "internalType": "address",
          "name": "donor",
          "type": "address"
        },
        {
          "indexed": true,
          "internalType": "address",
          "name": "artist",
          "type": "address"
        },
        {
          "indexed": false,
          "internalType": "uint256",
          "name": "amount",
          "type": "uint256"
        }
      ],
      "name": "DonationReceived",
      "type": "event"
    },
    {
      "anonymous": false,
      "inputs": [
        {
          "indexed": true,
          "internalType": "address",
          "name": "previousOwner",
          "type": "address"
        },
        {
          "indexed": true,
          "internalType": "address",
          "name": "newOwner",
          "type": "address"
        }
      ],
      "name": "OwnershipTransferred",
      "type": "event"
    },
    {
      "inputs": [],
      "name": "PLATFORM_FEE",
      "outputs": [
        {
          "internalType": "uint256",
          "name": "",
          "type": "uint256"
        }
      ],
      "stateMutability": "view",
      "type": "function"
    },
    {
      "inputs": [
        {
          "internalType": "address",
          "name": "artist",
          "type": "address"
        },
        {
          "internalType": "address",
          "name": "token",
          "type": "address"
        },
        {
          "internalType": "uint256",
          "name": "amount",
          "type": "uint256"
        }
      ],
      "name": "donate",
      "outputs": [],
      "stateMutability": "nonpayable",
      "type": "function"
    },
    {
      "inputs": [],
      "name": "owner",
      "outputs": [
        {
          "internalType": "address",
          "name": "",
          "type": "address"
        }
      ],
      "stateMutability": "view",
      "type": "function"
    },
    {
      "inputs": [],
      "name": "platformWallet",
      "outputs": [
        {
          "internalType": "address",
          "name": "",
          "type": "address"
        }
      ],
      "stateMutability": "view",
      "type": "function"
    },
    {
      "inputs": [],
      "name": "renounceOwnership",
      "outputs": [],
      "stateMutability": "nonpayable",
      "type": "function"
    },
    {
      "inputs": [
        {
          "internalType": "address",
          "name": "newOwner",
          "type": "address"
        }
      ],
      "name": "transferOwnership",
      "outputs": [],
      "stateMutability": "nonpayable",
      "type": "function"
    },
    {
      "inputs": [
        {
          "internalType": "address",
          "name": "_newWallet",
          "type": "address"
        }
      ],
      "name": "updatePlatformWallet",
      "outputs": [],
      "stateMutability": "nonpayable",
      "type": "function"
    }
  ],
  "bytecode": "0x608060405234801561001057600080fd5b506040516107f43803806107f483398101604081905261002f916100d4565b338061005557604051631e4fbdf760e01b81526000600482015260240160405180910390fd5b61005e81610084565b50600180546001600160a01b0319166001600160a01b0392909216919091179055610104565b600080546001600160a01b038381166001600160a01b0319831681178455604051919092169283917f8be0079c531659141344cd1fd0a4f28419497f9722a3daafe3b4186f6b6457e09190a35050565b6000602082840312156100e657600080fd5b81516001600160a01b03811681146100fd57600080fd5b9392505050565b6106e1806101136000396000f3fe608060405234801561001057600080fd5b506004361061007d5760003560e01c80638da5cb5b1161005b5780638da5cb5b146100ba578063ada4ef30146100df578063f2fde38b146100f2578063fa2af9da1461010557600080fd5b806334fbc9a114610082578063386bc05a1461009d578063715018a6146100b2575b600080fd5b61008a600a81565b6040519081526020015b60405180910390f35b6100b06100ab3660046105c3565b610118565b005b6100b061045f565b6000546001600160a01b03165b6040516001600160a01b039091168152602001610094565b6100b06100ed3660046105ff565b610473565b6100b06101003660046105ff565b6104ec565b6001546100c7906001600160a01b031681565b6001600160a01b03831661016c5760405162461bcd60e51b8152602060048201526016602482015275496e76616c696420617274697374206164647265737360501b60448201526064015b60405180910390fd5b600081116101bc5760405162461bcd60e51b815260206004820152601d60248201527f416d6f756e74206d7573742062652067726561746572207468616e20300000006044820152606401610163565b6040516323b872dd60e01b81523360048201523060248201526044810182905282906001600160a01b038216906323b872dd906064016020604051808303816000875af1158015610211573d6000803e3d6000fd5b505050506040513d601f19601f820116820180604052508101906102359190610621565b6102735760405162461bcd60e51b815260206004820152600f60248201526e151c985b9cd9995c8819985a5b1959608a1b6044820152606401610163565b60006064610282600a85610659565b61028c9190610676565b9050600061029a8285610698565b60015460405163a9059cbb60e01b81526001600160a01b0391821660048201526024810185905291925084169063a9059cbb906044016020604051808303816000875af11580156102ef573d6000803e3d6000fd5b505050506040513d601f19601f820116820180604052508101906103139190610621565b61035f5760405162461bcd60e51b815260206004820152601860248201527f506c6174666f726d207472616e73666572206661696c656400000000000000006044820152606401610163565b60405163a9059cbb60e01b81526001600160a01b0387811660048301526024820183905284169063a9059cbb906044016020604051808303816000875af11580156103ae573d6000803e3d6000fd5b505050506040513d601f19601f820116820180604052508101906103d29190610621565b6104175760405162461bcd60e51b8152602060048201526016602482015275105c9d1a5cdd081d1c985b9cd9995c8819985a5b195960521b6044820152606401610163565b6040518481526001600160a01b0387169033907f509fb5d764cf5e98b9f02a3d86350f8085cedb516140098d2d6fc2eb6256ac249060200160405180910390a3505050505050565b61046761052a565b6104716000610557565b565b61047b61052a565b6001600160a01b0381166104ca5760405162461bcd60e51b8152602060048201526016602482015275496e76616c69642077616c6c6574206164647265737360501b6044820152606401610163565b600180546001600160a01b0319166001600160a01b0392909216919091179055565b6104f461052a565b6001600160a01b03811661051e57604051631e4fbdf760e01b815260006004820152602401610163565b61052781610557565b50565b6000546001600160a01b031633146104715760405163118cdaa760e01b8152336004820152602401610163565b600080546001600160a01b038381166001600160a01b0319831681178455604051919092169283917f8be0079c531659141344cd1fd0a4f28419497f9722a3daafe3b4186f6b6457e09190a35050565b80356001600160a01b03811681146105be57600080fd5b919050565b6000806000606084860312156105d857600080fd5b6105e1846105a7565b92506105ef602085016105a7565b9150604084013590509250925092565b60006020828403121561061157600080fd5b61061a826105a7565b9392505050565b60006020828403121561063357600080fd5b8151801515811461061a57600080fd5b634e487b7160e01b600052601160045260246000fd5b808202811582820484141761067057610670610643565b92915050565b60008261069357634e487b7160e01b600052601260045260246000fd5b500490565b818103818111156106705761067061064356fea26469706673582212208f6b09db3320895901096f0b716cfcc6f40a1c74c3d8d2b3de058b4cc23176d864736f6c63430008140033",
  "linkReferences": {},
  "deployedLinkReferences": {}
}