{
  "_format": "hh-sol-artifact-1",
  "contractName": "StableCoinStaking",
  "sourceName": "contracts/StableCoinStaking.sol",
  "abi": [
    {
      "inputs": [
        {
          "internalType": "address",
          "name": "_cookiesToken",
          "type": "address"
        },
        {
          "internalType": "address",
          "name": "_stableCoin",
          "type": "address"
        }
      ],
      "stateMutability": "nonpayable",
      "type": "constructor"
    },
    {
      "inputs": [
        {
          "internalType": "address",
          "name": "owner",
          "type": "address"
        }
      ],
      "name": "OwnableInvalidOwner",
      "type": "error"
    },
    {
      "inputs": [
        {
          "internalType": "address",
          "name": "account",
          "type": "address"
        }
      ],
      "name": "OwnableUnauthorizedAccount",
      "type": "error"
    },
    {
      "anonymous": false,
      "inputs": [
        {
          "indexed": true,
          "internalType": "address",
          "name": "previousOwner",
          "type": "address"
        },
        {
          "indexed": true,
          "internalType": "address",
          "name": "newOwner",
          "type": "address"
        }
      ],
      "name": "OwnershipTransferred",
      "type": "event"
    },
    {
      "anonymous": false,
      "inputs": [
        {
          "indexed": true,
          "internalType": "address",
          "name": "user",
          "type": "address"
        },
        {
          "indexed": false,
          "internalType": "uint256",
          "name": "reward",
          "type": "uint256"
        }
      ],
      "name": "RewardPaid",
      "type": "event"
    },
    {
      "anonymous": false,
      "inputs": [
        {
          "indexed": false,
          "internalType": "uint256",
          "name": "newRate",
          "type": "uint256"
        }
      ],
      "name": "RewardRateUpdated",
      "type": "event"
    },
    {
      "anonymous": false,
      "inputs": [
        {
          "indexed": true,
          "internalType": "address",
          "name": "user",
          "type": "address"
        },
        {
          "indexed": false,
          "internalType": "uint256",
          "name": "amount",
          "type": "uint256"
        }
      ],
      "name": "Staked",
      "type": "event"
    },
    {
      "anonymous": false,
      "inputs": [
        {
          "indexed": true,
          "internalType": "address",
          "name": "user",
          "type": "address"
        },
        {
          "indexed": false,
          "internalType": "uint256",
          "name": "amount",
          "type": "uint256"
        }
      ],
      "name": "Unstaked",
      "type": "event"
    },
    {
      "inputs": [],
      "name": "MINUTE",
      "outputs": [
        {
          "internalType": "uint256",
          "name": "",
          "type": "uint256"
        }
      ],
      "stateMutability": "view",
      "type": "function"
    },
    {
      "inputs": [],
      "name": "claimRewards",
      "outputs": [],
      "stateMutability": "nonpayable",
      "type": "function"
    },
    {
      "inputs": [],
      "name": "cookiesToken",
      "outputs": [
        {
          "internalType": "contract CookiesToken",
          "name": "",
          "type": "address"
        }
      ],
      "stateMutability": "view",
      "type": "function"
    },
    {
      "inputs": [
        {
          "internalType": "uint256",
          "name": "_amount",
          "type": "uint256"
        }
      ],
      "name": "emergencyWithdraw",
      "outputs": [],
      "stateMutability": "nonpayable",
      "type": "function"
    },
    {
      "inputs": [],
      "name": "owner",
      "outputs": [
        {
          "internalType": "address",
          "name": "",
          "type": "address"
        }
      ],
      "stateMutability": "view",
      "type": "function"
    },
    {
      "inputs": [
        {
          "internalType": "address",
          "name": "_user",
          "type": "address"
        }
      ],
      "name": "pendingRewards",
      "outputs": [
        {
          "internalType": "uint256",
          "name": "",
          "type": "uint256"
        }
      ],
      "stateMutability": "view",
      "type": "function"
    },
    {
      "inputs": [],
      "name": "renounceOwnership",
      "outputs": [],
      "stateMutability": "nonpayable",
      "type": "function"
    },
    {
      "inputs": [],
      "name": "rewardRate",
      "outputs": [
        {
          "internalType": "uint256",
          "name": "",
          "type": "uint256"
        }
      ],
      "stateMutability": "view",
      "type": "function"
    },
    {
      "inputs": [
        {
          "internalType": "uint256",
          "name": "_newRate",
          "type": "uint256"
        }
      ],
      "name": "setRewardRate",
      "outputs": [],
      "stateMutability": "nonpayable",
      "type": "function"
    },
    {
      "inputs": [],
      "name": "stableCoin",
      "outputs": [
        {
          "internalType": "contract IERC20",
          "name": "",
          "type": "address"
        }
      ],
      "stateMutability": "view",
      "type": "function"
    },
    {
      "inputs": [
        {
          "internalType": "uint256",
          "name": "_amount",
          "type": "uint256"
        }
      ],
      "name": "stake",
      "outputs": [],
      "stateMutability": "nonpayable",
      "type": "function"
    },
    {
      "inputs": [
        {
          "internalType": "address",
          "name": "_user",
          "type": "address"
        }
      ],
      "name": "stakedBalanceOf",
      "outputs": [
        {
          "internalType": "uint256",
          "name": "",
          "type": "uint256"
        }
      ],
      "stateMutability": "view",
      "type": "function"
    },
    {
      "inputs": [
        {
          "internalType": "address",
          "name": "",
          "type": "address"
        }
      ],
      "name": "stakers",
      "outputs": [
        {
          "internalType": "uint256",
          "name": "stakedAmount",
          "type": "uint256"
        },
        {
          "internalType": "uint256",
          "name": "lastRewardTimestamp",
          "type": "uint256"
        }
      ],
      "stateMutability": "view",
      "type": "function"
    },
    {
      "inputs": [],
      "name": "totalStaked",
      "outputs": [
        {
          "internalType": "uint256",
          "name": "",
          "type": "uint256"
        }
      ],
      "stateMutability": "view",
      "type": "function"
    },
    {
      "inputs": [
        {
          "internalType": "address",
          "name": "newOwner",
          "type": "address"
        }
      ],
      "name": "transferOwnership",
      "outputs": [],
      "stateMutability": "nonpayable",
      "type": "function"
    },
    {
      "inputs": [
        {
          "internalType": "uint256",
          "name": "_amount",
          "type": "uint256"
        }
      ],
      "name": "unstake",
      "outputs": [],
      "stateMutability": "nonpayable",
      "type": "function"
    }
  ],
  "bytecode": "0x6080604052600a60015534801561001557600080fd5b50604051610b95380380610b9583398101604081905261003491610101565b338061005a57604051631e4fbdf760e01b81526000600482015260240160405180910390fd5b61006381610095565b50600280546001600160a01b039384166001600160a01b03199182161790915560038054929093169116179055610134565b600080546001600160a01b038381166001600160a01b0319831681178455604051919092169283917f8be0079c531659141344cd1fd0a4f28419497f9722a3daafe3b4186f6b6457e09190a35050565b80516001600160a01b03811681146100fc57600080fd5b919050565b6000806040838503121561011457600080fd5b61011d836100e5565b915061012b602084016100e5565b90509250929050565b610a52806101436000396000f3fe608060405234801561001057600080fd5b50600436106101005760003560e01c8063817b1cd2116100975780639e447fc6116100665780639e447fc61461021a578063a694fc3a1461022d578063af61934f14610240578063f2fde38b1461025357600080fd5b8063817b1cd21461019d5780638da5cb5b146101a65780639168ae72146101cb578063992642e51461020757600080fd5b8063372500ab116100d3578063372500ab146101715780635312ea8e14610179578063715018a61461018c5780637b0a47ee1461019457600080fd5b80631676539114610105578063198a8f65146101415780632e17de781461014957806331d7a2621461015e575b600080fd5b61012e6101133660046108f4565b6001600160a01b031660009081526004602052604090205490565b6040519081526020015b60405180910390f35b61012e603c81565b61015c610157366004610924565b610266565b005b61012e61016c3660046108f4565b6103c5565b61015c610433565b61015c610187366004610924565b61043e565b61015c6105ab565b61012e60015481565b61012e60055481565b6000546001600160a01b03165b6040516001600160a01b039091168152602001610138565b6101f26101d93660046108f4565b6004602052600090815260409020805460019091015482565b60408051928352602083019190915201610138565b6003546101b3906001600160a01b031681565b61015c610228366004610924565b6105bd565b61015c61023b366004610924565b610600565b6002546101b3906001600160a01b031681565b61015c6102613660046108f4565b61076a565b33600090815260046020526040902080548211156102bf5760405162461bcd60e51b8152602060048201526011602482015270139bdd08195b9bdd59da081cdd185ad959607a1b60448201526064015b60405180910390fd5b6102c8336107a5565b818160000160008282546102dc9190610953565b9250508190555081600560008282546102f59190610953565b909155505060035460405163a9059cbb60e01b8152336004820152602481018490526001600160a01b039091169063a9059cbb906044016020604051808303816000875af115801561034b573d6000803e3d6000fd5b505050506040513d601f19601f8201168201806040525081019061036f919061096c565b61038b5760405162461bcd60e51b81526004016102b69061098e565b60405182815233907f0f5bb82176feb1b5e747e28471aa92156a04d9f3ab9f45f28e2d704232b93f75906020015b60405180910390a25050565b6001600160a01b0381166000908152600460205260408120805482036103ee5750600092915050565b60008160010154426104009190610953565b9050603c81600154846000015461041791906109b7565b61042191906109b7565b61042b91906109ce565b949350505050565b61043c336107a5565b565b610446610877565b6003546040516370a0823160e01b81523060048201526001600160a01b03909116906370a0823190602401602060405180830381865afa15801561048e573d6000803e3d6000fd5b505050506040513d601f19601f820116820180604052508101906104b291906109f0565b8111156104f85760405162461bcd60e51b8152602060048201526014602482015273496e73756666696369656e742062616c616e636560601b60448201526064016102b6565b6003546001600160a01b031663a9059cbb61051b6000546001600160a01b031690565b6040516001600160e01b031960e084901b1681526001600160a01b039091166004820152602481018490526044016020604051808303816000875af1158015610568573d6000803e3d6000fd5b505050506040513d601f19601f8201168201806040525081019061058c919061096c565b6105a85760405162461bcd60e51b81526004016102b69061098e565b50565b6105b3610877565b61043c60006108a4565b6105c5610877565b60018190556040518181527f41d466ebd06fb97e7786086ac8b69b7eb7da798592036251291d34e9791cde019060200160405180910390a150565b600081116106415760405162461bcd60e51b815260206004820152600e60248201526d043616e6e6f74207374616b6520360941b60448201526064016102b6565b61064a336107a5565b6003546040516323b872dd60e01b8152336004820152306024820152604481018390526001600160a01b03909116906323b872dd906064016020604051808303816000875af11580156106a1573d6000803e3d6000fd5b505050506040513d601f19601f820116820180604052508101906106c5919061096c565b6106e15760405162461bcd60e51b81526004016102b69061098e565b3360009081526004602052604081208054839290610700908490610a09565b9091555050336000908152600460205260408120426001909101556005805483929061072d908490610a09565b909155505060405181815233907f9e71bc8eea02a63969f509818f2dafb9254532904319f9dbda79b67bd34a5f3d9060200160405180910390a250565b610772610877565b6001600160a01b03811661079c57604051631e4fbdf760e01b8152600060048201526024016102b6565b6105a8816108a4565b60006107b0826103c5565b90508015610873576001600160a01b038281166000818152600460208190526040918290204260019091015560025491516340c10f1960e01b81529081019290925260248201849052909116906340c10f1990604401600060405180830381600087803b15801561082057600080fd5b505af1158015610834573d6000803e3d6000fd5b50505050816001600160a01b03167fe2403640ba68fed3a2f88b7557551d1993f84b99bb10ff833f0cf8db0c5e0486826040516103b991815260200190565b5050565b6000546001600160a01b0316331461043c5760405163118cdaa760e01b81523360048201526024016102b6565b600080546001600160a01b038381166001600160a01b0319831681178455604051919092169283917f8be0079c531659141344cd1fd0a4f28419497f9722a3daafe3b4186f6b6457e09190a35050565b60006020828403121561090657600080fd5b81356001600160a01b038116811461091d57600080fd5b9392505050565b60006020828403121561093657600080fd5b5035919050565b634e487b7160e01b600052601160045260246000fd5b818103818111156109665761096661093d565b92915050565b60006020828403121561097e57600080fd5b8151801515811461091d57600080fd5b6020808252600f908201526e151c985b9cd9995c8819985a5b1959608a1b604082015260600190565b80820281158282048414176109665761096661093d565b6000826109eb57634e487b7160e01b600052601260045260246000fd5b500490565b600060208284031215610a0257600080fd5b5051919050565b808201808211156109665761096661093d56fea26469706673582212200254a764b800c2caa89cbb4b8b0a7dbf413a1c12924aa3ae4b2fea871b851f6a64736f6c63430008140033",
  "linkReferences": {},
  "deployedLinkReferences": {}
}